{
  "address": "0xCf7Ed3AccA5a467e9e704C703E8D87F634fB0Fc9",
  "abi": [
    {
      "inputs": [
        {
          "internalType": "address",
          "name": "vrfCoordinatorV2",
          "type": "address"
        },
        {
          "internalType": "uint256",
          "name": "entraceFee",
          "type": "uint256"
        },
        {
          "internalType": "bytes32",
          "name": "gasLane",
          "type": "bytes32"
        },
        {
          "internalType": "uint64",
          "name": "subscriptionId",
          "type": "uint64"
        },
        {
          "internalType": "uint32",
          "name": "callbackGasLimit",
          "type": "uint32"
        },
        {
          "internalType": "uint256",
          "name": "raffleInterval",
          "type": "uint256"
        }
      ],
      "stateMutability": "nonpayable",
      "type": "constructor"
    },
    {
      "inputs": [
        {
          "internalType": "address",
          "name": "have",
          "type": "address"
        },
        {
          "internalType": "address",
          "name": "want",
          "type": "address"
        }
      ],
      "name": "OnlyCoordinatorCanFulfill",
      "type": "error"
    },
    {
      "inputs": [],
      "name": "Raffle__NoEnoughStartingFee",
      "type": "error"
    },
    {
      "inputs": [
        {
          "internalType": "uint256",
          "name": "remainingInterval",
          "type": "uint256"
        },
        {
          "internalType": "uint256",
          "name": "raffleStatus",
          "type": "uint256"
        }
      ],
      "name": "Raffle__NoIntervalReachedToWin",
      "type": "error"
    },
    {
      "inputs": [],
      "name": "Raffle__NotOpen",
      "type": "error"
    },
    {
      "inputs": [],
      "name": "Raffle__WinnerTransferFailed",
      "type": "error"
    },
    {
      "anonymous": false,
      "inputs": [
        {
          "indexed": false,
          "internalType": "address",
          "name": "playerAddress",
          "type": "address"
        }
      ],
      "name": "RafflePlayerJoined",
      "type": "event"
    },
    {
      "anonymous": false,
      "inputs": [
        {
          "indexed": false,
          "internalType": "uint256",
          "name": "requestId",
          "type": "uint256"
        }
      ],
      "name": "RaffleRequestWinner",
      "type": "event"
    },
    {
      "anonymous": false,
      "inputs": [
        {
          "indexed": true,
          "internalType": "address",
          "name": "winnerAddress",
          "type": "address"
        }
      ],
      "name": "WinnerPicked",
      "type": "event"
    },
    {
      "stateMutability": "payable",
      "type": "fallback"
    },
    {
      "inputs": [
        {
          "internalType": "bytes",
          "name": "",
          "type": "bytes"
        }
      ],
      "name": "checkUpkeep",
      "outputs": [
        {
          "internalType": "bool",
          "name": "upkeepNeeded",
          "type": "bool"
        },
        {
          "internalType": "bytes",
          "name": "performData",
          "type": "bytes"
        }
      ],
      "stateMutability": "view",
      "type": "function"
    },
    {
      "inputs": [],
      "name": "getEntranceFee",
      "outputs": [
        {
          "internalType": "uint256",
          "name": "",
          "type": "uint256"
        }
      ],
      "stateMutability": "view",
      "type": "function"
    },
    {
      "inputs": [],
      "name": "getLatestRaffleTimeStamp",
      "outputs": [
        {
          "internalType": "uint256",
          "name": "",
          "type": "uint256"
        }
      ],
      "stateMutability": "view",
      "type": "function"
    },
    {
      "inputs": [],
      "name": "getNumWords",
      "outputs": [
        {
          "internalType": "uint256",
          "name": "",
          "type": "uint256"
        }
      ],
      "stateMutability": "pure",
      "type": "function"
    },
    {
      "inputs": [],
      "name": "getNumberOfPlayers",
      "outputs": [
        {
          "internalType": "uint256",
          "name": "",
          "type": "uint256"
        }
      ],
      "stateMutability": "view",
      "type": "function"
    },
    {
      "inputs": [
        {
          "internalType": "uint256",
          "name": "playerIndex",
          "type": "uint256"
        }
      ],
      "name": "getPlayer",
      "outputs": [
        {
          "internalType": "address",
          "name": "",
          "type": "address"
        }
      ],
      "stateMutability": "view",
      "type": "function"
    },
    {
      "inputs": [],
      "name": "getRaffleInterval",
      "outputs": [
        {
          "internalType": "uint256",
          "name": "",
          "type": "uint256"
        }
      ],
      "stateMutability": "view",
      "type": "function"
    },
    {
      "inputs": [],
      "name": "getRaffleState",
      "outputs": [
        {
          "internalType": "enum Raffle.RaffleState",
          "name": "",
          "type": "uint8"
        }
      ],
      "stateMutability": "view",
      "type": "function"
    },
    {
      "inputs": [],
      "name": "joinRaffle",
      "outputs": [],
      "stateMutability": "payable",
      "type": "function"
    },
    {
      "inputs": [
        {
          "internalType": "bytes",
          "name": "",
          "type": "bytes"
        }
      ],
      "name": "performUpkeep",
      "outputs": [],
      "stateMutability": "nonpayable",
      "type": "function"
    },
    {
      "inputs": [
        {
          "internalType": "uint256",
          "name": "requestId",
          "type": "uint256"
        },
        {
          "internalType": "uint256[]",
          "name": "randomWords",
          "type": "uint256[]"
        }
      ],
      "name": "rawFulfillRandomWords",
      "outputs": [],
      "stateMutability": "nonpayable",
      "type": "function"
    },
    {
      "stateMutability": "payable",
      "type": "receive"
    }
  ],
  "transactionHash": "0x2503bcb2aa71ec379e3a4246abc6620d6f08480368b9686e0e386eec741ec2b3",
  "args": [
    "0x5FbDB2315678afecb367f032d93F642f64180aa3",
    "10000000000000000",
    "0x474e34a077df58807dbe9c96d3c009b23b3c6d0cce433e59bbf5b34f823bc56c",
    "1",
    "500000",
    "60"
  ],
  "numDeployments": 1,
  "solcInputHash": "ba79030e4c5c5430daa40f9e3eb8e967",
  "bytecode": "0x6101406040523480156200001257600080fd5b50604051620016f9380380620016f9833981810160405281019062000038919062000272565b858073ffffffffffffffffffffffffffffffffffffffff1660808173ffffffffffffffffffffffffffffffffffffffff1681525050508460a0818152505085600160006101000a81548173ffffffffffffffffffffffffffffffffffffffff021916908373ffffffffffffffffffffffffffffffffffffffff1602179055508360c081815250508267ffffffffffffffff1660e08167ffffffffffffffff16815250508163ffffffff166101008163ffffffff1681525050806101208181525050426003819055505050505050506200030e565b600080fd5b600073ffffffffffffffffffffffffffffffffffffffff82169050919050565b60006200013e8262000111565b9050919050565b620001508162000131565b81146200015c57600080fd5b50565b600081519050620001708162000145565b92915050565b6000819050919050565b6200018b8162000176565b81146200019757600080fd5b50565b600081519050620001ab8162000180565b92915050565b6000819050919050565b620001c681620001b1565b8114620001d257600080fd5b50565b600081519050620001e681620001bb565b92915050565b600067ffffffffffffffff82169050919050565b6200020b81620001ec565b81146200021757600080fd5b50565b6000815190506200022b8162000200565b92915050565b600063ffffffff82169050919050565b6200024c8162000231565b81146200025857600080fd5b50565b6000815190506200026c8162000241565b92915050565b60008060008060008060c087890312156200029257620002916200010c565b5b6000620002a289828a016200015f565b9650506020620002b589828a016200019a565b9550506040620002c889828a01620001d5565b9450506060620002db89828a016200021a565b9350506080620002ee89828a016200025b565b92505060a06200030189828a016200019a565b9150509295509295509295565b60805160a05160c05160e051610100516101205161138662000373600039600081816107820152610abf0152600061063701526000610614015260006105f3015260008181610315015261040d01526000818161044a015261049e01526113866000f3fe6080604052600436106100a05760003560e01c806353a2c19a1161006457806353a2c19a1461017f5780636e04ff0d146101aa5780636e80809f146101e8578063e55ae4e814610213578063e5690db814610250578063fd6673f51461027b576100b9565b806309bc33a7146100cd578063115cbaf5146100f8578063136b3392146101235780631fe543e31461012d5780634585e33b14610156576100b9565b366100b95760003411156100b7576100b66102a6565b5b005b60003411156100cb576100ca6102a6565b5b005b3480156100d957600080fd5b506100e2610409565b6040516100ef9190610bb2565b60405180910390f35b34801561010457600080fd5b5061010d610431565b60405161011a9190610c44565b60405180910390f35b61012b6102a6565b005b34801561013957600080fd5b50610154600480360381019061014f9190610df8565b610448565b005b34801561016257600080fd5b5061017d60048036038101906101789190610eaf565b610508565b005b34801561018b57600080fd5b506101946106fa565b6040516101a19190610bb2565b60405180910390f35b3480156101b657600080fd5b506101d160048036038101906101cc9190610eaf565b610706565b6040516101df929190610f96565b60405180910390f35b3480156101f457600080fd5b506101fd61072d565b60405161020a9190610bb2565b60405180910390f35b34801561021f57600080fd5b5061023a60048036038101906102359190610fc6565b610737565b6040516102479190611034565b60405180910390f35b34801561025c57600080fd5b5061026561077e565b6040516102729190610bb2565b60405180910390f35b34801561028757600080fd5b506102906107a6565b60405161029d9190610bb2565b60405180910390f35b600060018111156102ba576102b9610bcd565b5b600460009054906101000a900460ff1660018111156102dc576102db610bcd565b5b14610313576040517f1425571c00000000000000000000000000000000000000000000000000000000815260040160405180910390fd5b7f000000000000000000000000000000000000000000000000000000000000000034101561036d576040517f283bbff100000000000000000000000000000000000000000000000000000000815260040160405180910390fd5b6000339080600181540180825580915050600190039060005260206000200160009091909190916101000a81548173ffffffffffffffffffffffffffffffffffffffff021916908373ffffffffffffffffffffffffffffffffffffffff1602179055507f456b8dc13bfff75121ddbf80e7a3cacc32d8aaa33e03a336c66064b1277ad080336040516103ff9190611034565b60405180910390a1565b60007f0000000000000000000000000000000000000000000000000000000000000000905090565b6000600460009054906101000a900460ff16905090565b7f000000000000000000000000000000000000000000000000000000000000000073ffffffffffffffffffffffffffffffffffffffff163373ffffffffffffffffffffffffffffffffffffffff16146104fa57337f00000000000000000000000000000000000000000000000000000000000000006040517f1cf993f40000000000000000000000000000000000000000000000000000000081526004016104f192919061104f565b60405180910390fd5b61050482826107b2565b5050565b60006003544261051891906110a7565b9050610522610a22565b6105865780600460009054906101000a900460ff16600181111561054957610548610bcd565b5b6040517fc2e3a5d700000000000000000000000000000000000000000000000000000000815260040161057d9291906110db565b60405180910390fd5b6001600460006101000a81548160ff021916908360018111156105ac576105ab610bcd565b5b02179055506000600160009054906101000a900473ffffffffffffffffffffffffffffffffffffffff1673ffffffffffffffffffffffffffffffffffffffff16635d3b1d307f00000000000000000000000000000000000000000000000000000000000000007f000000000000000000000000000000000000000000000000000000000000000060057f000000000000000000000000000000000000000000000000000000000000000060016040518663ffffffff1660e01b81526004016106789594939291906111e6565b6020604051808303816000875af1158015610697573d6000803e3d6000fd5b505050506040513d601f19601f820116820180604052508101906106bb919061124e565b90507f6a26914eaa14b7bba3811166ef5bb36f7720311d335c6956bce19c3be5fba5d5816040516106ec9190610bb2565b60405180910390a150505050565b6000600160ff16905090565b60006060610712610a22565b91506040518060200160405280600081525090509250929050565b6000600354905090565b600080828154811061074c5761074b61127b565b5b9060005260206000200160009054906101000a900473ffffffffffffffffffffffffffffffffffffffff169050919050565b60007f0000000000000000000000000000000000000000000000000000000000000000905090565b60008080549050905090565b60008080549050826000815181106107cd576107cc61127b565b5b60200260200101516107df91906112d9565b9050600081815481106107f5576107f461127b565b5b9060005260206000200160009054906101000a900473ffffffffffffffffffffffffffffffffffffffff16600260006101000a81548173ffffffffffffffffffffffffffffffffffffffff021916908373ffffffffffffffffffffffffffffffffffffffff1602179055506000600260009054906101000a900473ffffffffffffffffffffffffffffffffffffffff1673ffffffffffffffffffffffffffffffffffffffff16476040516108a89061133b565b60006040518083038185875af1925050503d80600081146108e5576040519150601f19603f3d011682016040523d82523d6000602084013e6108ea565b606091505b5050905080610925576040517f07685e3b00000000000000000000000000000000000000000000000000000000815260040160405180910390fd5b6000600460006101000a81548160ff0219169083600181111561094b5761094a610bcd565b5b0217905550600067ffffffffffffffff81111561096b5761096a610cb5565b5b6040519080825280602002602001820160405280156109995781602001602082028036833780820191505090505b50600090805190602001906109af929190610af2565b5042600381905550600260009054906101000a900473ffffffffffffffffffffffffffffffffffffffff1673ffffffffffffffffffffffffffffffffffffffff167f5b690ec4a06fe979403046eaeea5b3ce38524683c3001f662c8b5a829632f7df60405160405180910390a250505050565b6000610a2e6000610a63565b8015610a3e5750610a3d610aa2565b5b8015610a4e5750610a4d610ab1565b5b8015610a5e5750610a5d610abb565b5b905090565b6000600460009054906101000a900460ff166001811115610a8757610a86610bcd565b5b826001811115610a9a57610a99610bcd565b5b149050919050565b60008060008054905011905090565b6000804711905090565b60007f000000000000000000000000000000000000000000000000000000000000000060035442610aec91906110a7565b11905090565b828054828255906000526020600020908101928215610b6b579160200282015b82811115610b6a5782518260006101000a81548173ffffffffffffffffffffffffffffffffffffffff021916908373ffffffffffffffffffffffffffffffffffffffff16021790555091602001919060010190610b12565b5b509050610b789190610b7c565b5090565b5b80821115610b95576000816000905550600101610b7d565b5090565b6000819050919050565b610bac81610b99565b82525050565b6000602082019050610bc76000830184610ba3565b92915050565b7f4e487b7100000000000000000000000000000000000000000000000000000000600052602160045260246000fd5b60028110610c0d57610c0c610bcd565b5b50565b6000819050610c1e82610bfc565b919050565b6000610c2e82610c10565b9050919050565b610c3e81610c23565b82525050565b6000602082019050610c596000830184610c35565b92915050565b6000604051905090565b600080fd5b600080fd5b610c7c81610b99565b8114610c8757600080fd5b50565b600081359050610c9981610c73565b92915050565b600080fd5b6000601f19601f8301169050919050565b7f4e487b7100000000000000000000000000000000000000000000000000000000600052604160045260246000fd5b610ced82610ca4565b810181811067ffffffffffffffff82111715610d0c57610d0b610cb5565b5b80604052505050565b6000610d1f610c5f565b9050610d2b8282610ce4565b919050565b600067ffffffffffffffff821115610d4b57610d4a610cb5565b5b602082029050602081019050919050565b600080fd5b6000610d74610d6f84610d30565b610d15565b90508083825260208201905060208402830185811115610d9757610d96610d5c565b5b835b81811015610dc05780610dac8882610c8a565b845260208401935050602081019050610d99565b5050509392505050565b600082601f830112610ddf57610dde610c9f565b5b8135610def848260208601610d61565b91505092915050565b60008060408385031215610e0f57610e0e610c69565b5b6000610e1d85828601610c8a565b925050602083013567ffffffffffffffff811115610e3e57610e3d610c6e565b5b610e4a85828601610dca565b9150509250929050565b600080fd5b60008083601f840112610e6f57610e6e610c9f565b5b8235905067ffffffffffffffff811115610e8c57610e8b610e54565b5b602083019150836001820283011115610ea857610ea7610d5c565b5b9250929050565b60008060208385031215610ec657610ec5610c69565b5b600083013567ffffffffffffffff811115610ee457610ee3610c6e565b5b610ef085828601610e59565b92509250509250929050565b60008115159050919050565b610f1181610efc565b82525050565b600081519050919050565b600082825260208201905092915050565b60005b83811015610f51578082015181840152602081019050610f36565b60008484015250505050565b6000610f6882610f17565b610f728185610f22565b9350610f82818560208601610f33565b610f8b81610ca4565b840191505092915050565b6000604082019050610fab6000830185610f08565b8181036020830152610fbd8184610f5d565b90509392505050565b600060208284031215610fdc57610fdb610c69565b5b6000610fea84828501610c8a565b91505092915050565b600073ffffffffffffffffffffffffffffffffffffffff82169050919050565b600061101e82610ff3565b9050919050565b61102e81611013565b82525050565b60006020820190506110496000830184611025565b92915050565b60006040820190506110646000830185611025565b6110716020830184611025565b9392505050565b7f4e487b7100000000000000000000000000000000000000000000000000000000600052601160045260246000fd5b60006110b282610b99565b91506110bd83610b99565b92508282039050818111156110d5576110d4611078565b5b92915050565b60006040820190506110f06000830185610ba3565b6110fd6020830184610ba3565b9392505050565b6000819050919050565b61111781611104565b82525050565b600067ffffffffffffffff82169050919050565b61113a8161111d565b82525050565b600060ff82169050919050565b600061ffff82169050919050565b6000819050919050565b600061118061117b61117684611140565b61115b565b61114d565b9050919050565b61119081611165565b82525050565b600063ffffffff82169050919050565b6111af81611196565b82525050565b60006111d06111cb6111c684611140565b61115b565b611196565b9050919050565b6111e0816111b5565b82525050565b600060a0820190506111fb600083018861110e565b6112086020830187611131565b6112156040830186611187565b61122260608301856111a6565b61122f60808301846111d7565b9695505050505050565b60008151905061124881610c73565b92915050565b60006020828403121561126457611263610c69565b5b600061127284828501611239565b91505092915050565b7f4e487b7100000000000000000000000000000000000000000000000000000000600052603260045260246000fd5b7f4e487b7100000000000000000000000000000000000000000000000000000000600052601260045260246000fd5b60006112e482610b99565b91506112ef83610b99565b9250826112ff576112fe6112aa565b5b828206905092915050565b600081905092915050565b50565b600061132560008361130a565b915061133082611315565b600082019050919050565b600061134682611318565b915081905091905056fea26469706673582212201d2e705a2fe4c2b2b683eee941633fae94b332c86a5f4ff182940c6f0c29ca9764736f6c63430008120033",
  "devdoc": {
    "author": "Artemides - Edmundo Arias",
    "details": "Raffle is implements the VRF v2 and Chainlink Keepers",
    "kind": "dev",
    "methods": {
      "checkUpkeep(bytes)": {
        "details": "function required to run on chainlink automation network",
        "returns": {
          "performData": "is the data to be run",
          "upkeepNeeded": "is needed to perform the upkeep"
        }
      }
    },
    "title": "Untamperable Raffle",
    "version": 1
  },
  "userdoc": {
    "kind": "user",
    "methods": {},
    "notice": "this descentalized raffle picks a random winner",
    "version": 1
  },
  "storageLayout": {
    "storage": [
      {
        "astId": 195,
        "contract": "contracts/Raffle.sol:Raffle",
        "label": "s_players",
        "offset": 0,
        "slot": "0",
        "type": "t_array(t_address_payable)dyn_storage"
      },
      {
        "astId": 198,
        "contract": "contracts/Raffle.sol:Raffle",
        "label": "i_vrfCoordinatorV2",
        "offset": 0,
        "slot": "1",
        "type": "t_contract(VRFCoordinatorV2Interface)165"
      },
      {
        "astId": 212,
        "contract": "contracts/Raffle.sol:Raffle",
        "label": "s_lastWinner",
        "offset": 0,
        "slot": "2",
        "type": "t_address"
      },
      {
        "astId": 216,
        "contract": "contracts/Raffle.sol:Raffle",
        "label": "s_lastRaffleInterval",
        "offset": 0,
        "slot": "3",
        "type": "t_uint256"
      },
      {
        "astId": 219,
        "contract": "contracts/Raffle.sol:Raffle",
        "label": "s_raffleSate",
        "offset": 0,
        "slot": "4",
        "type": "t_enum(RaffleState)190"
      }
    ],
    "types": {
      "t_address": {
        "encoding": "inplace",
        "label": "address",
        "numberOfBytes": "20"
      },
      "t_address_payable": {
        "encoding": "inplace",
        "label": "address payable",
        "numberOfBytes": "20"
      },
      "t_array(t_address_payable)dyn_storage": {
        "base": "t_address_payable",
        "encoding": "dynamic_array",
        "label": "address payable[]",
        "numberOfBytes": "32"
      },
      "t_contract(VRFCoordinatorV2Interface)165": {
        "encoding": "inplace",
        "label": "contract VRFCoordinatorV2Interface",
        "numberOfBytes": "20"
      },
      "t_enum(RaffleState)190": {
        "encoding": "inplace",
        "label": "enum Raffle.RaffleState",
        "numberOfBytes": "1"
      },
      "t_uint256": {
        "encoding": "inplace",
        "label": "uint256",
        "numberOfBytes": "32"
      }
    }
  }
}