{
  "address": "0xCf7Ed3AccA5a467e9e704C703E8D87F634fB0Fc9",
  "abi": [
    {
      "inputs": [
        {
          "internalType": "address",
          "name": "vrfCoordinatorV2",
          "type": "address"
        },
        {
          "internalType": "uint256",
          "name": "entraceFee",
          "type": "uint256"
        },
        {
          "internalType": "bytes32",
          "name": "gasLane",
          "type": "bytes32"
        },
        {
          "internalType": "uint64",
          "name": "subscriptionId",
          "type": "uint64"
        },
        {
          "internalType": "uint32",
          "name": "callbackGasLimit",
          "type": "uint32"
        },
        {
          "internalType": "uint256",
          "name": "raffleInterval",
          "type": "uint256"
        }
      ],
      "stateMutability": "nonpayable",
      "type": "constructor"
    },
    {
      "inputs": [
        {
          "internalType": "address",
          "name": "have",
          "type": "address"
        },
        {
          "internalType": "address",
          "name": "want",
          "type": "address"
        }
      ],
      "name": "OnlyCoordinatorCanFulfill",
      "type": "error"
    },
    {
      "inputs": [],
      "name": "Raffle__NoEnoughStartingFee",
      "type": "error"
    },
    {
      "inputs": [
        {
          "internalType": "uint256",
          "name": "remainingInterval",
          "type": "uint256"
        },
        {
          "internalType": "uint256",
          "name": "raffleStatus",
          "type": "uint256"
        }
      ],
      "name": "Raffle__NoIntervalReachedToWin",
      "type": "error"
    },
    {
      "inputs": [],
      "name": "Raffle__NotOpen",
      "type": "error"
    },
    {
      "inputs": [],
      "name": "Raffle__WinnerTransferFailed",
      "type": "error"
    },
    {
      "anonymous": false,
      "inputs": [
        {
          "indexed": false,
          "internalType": "address",
          "name": "playerAddress",
          "type": "address"
        }
      ],
      "name": "RafflePlayerJoined",
      "type": "event"
    },
    {
      "anonymous": false,
      "inputs": [
        {
          "indexed": false,
          "internalType": "uint256",
          "name": "requestId",
          "type": "uint256"
        }
      ],
      "name": "RaffleRequestWinner",
      "type": "event"
    },
    {
      "anonymous": false,
      "inputs": [
        {
          "indexed": true,
          "internalType": "address",
          "name": "winnerAddress",
          "type": "address"
        }
      ],
      "name": "WinnerPicked",
      "type": "event"
    },
    {
      "stateMutability": "payable",
      "type": "fallback"
    },
    {
      "inputs": [
        {
          "internalType": "bytes",
          "name": "",
          "type": "bytes"
        }
      ],
      "name": "checkUpkeep",
      "outputs": [
        {
          "internalType": "bool",
          "name": "upkeepNeeded",
          "type": "bool"
        },
        {
          "internalType": "bytes",
          "name": "performData",
          "type": "bytes"
        }
      ],
      "stateMutability": "view",
      "type": "function"
    },
    {
      "inputs": [],
      "name": "getEntranceFee",
      "outputs": [
        {
          "internalType": "uint256",
          "name": "",
          "type": "uint256"
        }
      ],
      "stateMutability": "view",
      "type": "function"
    },
    {
      "inputs": [],
      "name": "getLatestRaffleTimeStamp",
      "outputs": [
        {
          "internalType": "uint256",
          "name": "",
          "type": "uint256"
        }
      ],
      "stateMutability": "view",
      "type": "function"
    },
    {
      "inputs": [],
      "name": "getNumWords",
      "outputs": [
        {
          "internalType": "uint256",
          "name": "",
          "type": "uint256"
        }
      ],
      "stateMutability": "pure",
      "type": "function"
    },
    {
      "inputs": [],
      "name": "getNumberOfPlayers",
      "outputs": [
        {
          "internalType": "uint256",
          "name": "",
          "type": "uint256"
        }
      ],
      "stateMutability": "view",
      "type": "function"
    },
    {
      "inputs": [
        {
          "internalType": "uint256",
          "name": "playerIndex",
          "type": "uint256"
        }
      ],
      "name": "getPlayer",
      "outputs": [
        {
          "internalType": "address",
          "name": "",
          "type": "address"
        }
      ],
      "stateMutability": "view",
      "type": "function"
    },
    {
      "inputs": [],
      "name": "getRaffleInterval",
      "outputs": [
        {
          "internalType": "uint256",
          "name": "",
          "type": "uint256"
        }
      ],
      "stateMutability": "view",
      "type": "function"
    },
    {
      "inputs": [],
      "name": "getRaffleState",
      "outputs": [
        {
          "internalType": "enum Raffle.RaffleState",
          "name": "",
          "type": "uint8"
        }
      ],
      "stateMutability": "view",
      "type": "function"
    },
    {
      "inputs": [],
      "name": "joinRaffle",
      "outputs": [],
      "stateMutability": "payable",
      "type": "function"
    },
    {
      "inputs": [
        {
          "internalType": "bytes",
          "name": "",
          "type": "bytes"
        }
      ],
      "name": "performUpkeep",
      "outputs": [],
      "stateMutability": "nonpayable",
      "type": "function"
    },
    {
      "inputs": [
        {
          "internalType": "uint256",
          "name": "requestId",
          "type": "uint256"
        },
        {
          "internalType": "uint256[]",
          "name": "randomWords",
          "type": "uint256[]"
        }
      ],
      "name": "rawFulfillRandomWords",
      "outputs": [],
      "stateMutability": "nonpayable",
      "type": "function"
    },
    {
      "stateMutability": "payable",
      "type": "receive"
    }
  ],
  "transactionHash": "0x0a7b3b0f7904542108d4178035e94bc7eba067a677833af3b9b4203252276b7d",
  "args": [
    "0x5FbDB2315678afecb367f032d93F642f64180aa3",
    "10000000000000000",
    "0x474e34a077df58807dbe9c96d3c009b23b3c6d0cce433e59bbf5b34f823bc56c",
    "1",
    "500000",
    "60"
  ],
  "numDeployments": 1,
  "solcInputHash": "bb64ab5f453fabc5302172827c82a932",
  "bytecode": "0x6101406040523480156200001257600080fd5b50604051620016e5380380620016e5833981810160405281019062000038919062000272565b858073ffffffffffffffffffffffffffffffffffffffff1660808173ffffffffffffffffffffffffffffffffffffffff1681525050508460a0818152505085600160006101000a81548173ffffffffffffffffffffffffffffffffffffffff021916908373ffffffffffffffffffffffffffffffffffffffff1602179055508360c081815250508267ffffffffffffffff1660e08167ffffffffffffffff16815250508163ffffffff166101008163ffffffff1681525050806101208181525050426003819055505050505050506200030e565b600080fd5b600073ffffffffffffffffffffffffffffffffffffffff82169050919050565b60006200013e8262000111565b9050919050565b620001508162000131565b81146200015c57600080fd5b50565b600081519050620001708162000145565b92915050565b6000819050919050565b6200018b8162000176565b81146200019757600080fd5b50565b600081519050620001ab8162000180565b92915050565b6000819050919050565b620001c681620001b1565b8114620001d257600080fd5b50565b600081519050620001e681620001bb565b92915050565b600067ffffffffffffffff82169050919050565b6200020b81620001ec565b81146200021757600080fd5b50565b6000815190506200022b8162000200565b92915050565b600063ffffffff82169050919050565b6200024c8162000231565b81146200025857600080fd5b50565b6000815190506200026c8162000241565b92915050565b60008060008060008060c087890312156200029257620002916200010c565b5b6000620002a289828a016200015f565b9650506020620002b589828a016200019a565b9550506040620002c889828a01620001d5565b9450506060620002db89828a016200021a565b9350506080620002ee89828a016200025b565b92505060a06200030189828a016200019a565b9150509295509295509295565b60805160a05160c05160e0516101005161012051611372620003736000396000818161076e0152610aab0152600061062301526000610600015260006105df01526000818161030101526103f9015260008181610436015261048a01526113726000f3fe6080604052600436106100a05760003560e01c806353a2c19a1161006457806353a2c19a1461016b5780636e04ff0d146101965780636e80809f146101d4578063e55ae4e8146101ff578063e5690db81461023c578063fd6673f514610267576100af565b806309bc33a7146100b9578063115cbaf5146100e4578063136b33921461010f5780631fe543e3146101195780634585e33b14610142576100af565b366100af576100ad610292565b005b6100b7610292565b005b3480156100c557600080fd5b506100ce6103f5565b6040516100db9190610b9e565b60405180910390f35b3480156100f057600080fd5b506100f961041d565b6040516101069190610c30565b60405180910390f35b610117610292565b005b34801561012557600080fd5b50610140600480360381019061013b9190610de4565b610434565b005b34801561014e57600080fd5b5061016960048036038101906101649190610e9b565b6104f4565b005b34801561017757600080fd5b506101806106e6565b60405161018d9190610b9e565b60405180910390f35b3480156101a257600080fd5b506101bd60048036038101906101b89190610e9b565b6106f2565b6040516101cb929190610f82565b60405180910390f35b3480156101e057600080fd5b506101e9610719565b6040516101f69190610b9e565b60405180910390f35b34801561020b57600080fd5b5061022660048036038101906102219190610fb2565b610723565b6040516102339190611020565b60405180910390f35b34801561024857600080fd5b5061025161076a565b60405161025e9190610b9e565b60405180910390f35b34801561027357600080fd5b5061027c610792565b6040516102899190610b9e565b60405180910390f35b600060018111156102a6576102a5610bb9565b5b600460009054906101000a900460ff1660018111156102c8576102c7610bb9565b5b146102ff576040517f1425571c00000000000000000000000000000000000000000000000000000000815260040160405180910390fd5b7f0000000000000000000000000000000000000000000000000000000000000000341015610359576040517f283bbff100000000000000000000000000000000000000000000000000000000815260040160405180910390fd5b6000339080600181540180825580915050600190039060005260206000200160009091909190916101000a81548173ffffffffffffffffffffffffffffffffffffffff021916908373ffffffffffffffffffffffffffffffffffffffff1602179055507f456b8dc13bfff75121ddbf80e7a3cacc32d8aaa33e03a336c66064b1277ad080336040516103eb9190611020565b60405180910390a1565b60007f0000000000000000000000000000000000000000000000000000000000000000905090565b6000600460009054906101000a900460ff16905090565b7f000000000000000000000000000000000000000000000000000000000000000073ffffffffffffffffffffffffffffffffffffffff163373ffffffffffffffffffffffffffffffffffffffff16146104e657337f00000000000000000000000000000000000000000000000000000000000000006040517f1cf993f40000000000000000000000000000000000000000000000000000000081526004016104dd92919061103b565b60405180910390fd5b6104f0828261079e565b5050565b6000600354426105049190611093565b905061050e610a0e565b6105725780600460009054906101000a900460ff16600181111561053557610534610bb9565b5b6040517fc2e3a5d70000000000000000000000000000000000000000000000000000000081526004016105699291906110c7565b60405180910390fd5b6001600460006101000a81548160ff0219169083600181111561059857610597610bb9565b5b02179055506000600160009054906101000a900473ffffffffffffffffffffffffffffffffffffffff1673ffffffffffffffffffffffffffffffffffffffff16635d3b1d307f00000000000000000000000000000000000000000000000000000000000000007f000000000000000000000000000000000000000000000000000000000000000060057f000000000000000000000000000000000000000000000000000000000000000060016040518663ffffffff1660e01b81526004016106649594939291906111d2565b6020604051808303816000875af1158015610683573d6000803e3d6000fd5b505050506040513d601f19601f820116820180604052508101906106a7919061123a565b90507f6a26914eaa14b7bba3811166ef5bb36f7720311d335c6956bce19c3be5fba5d5816040516106d89190610b9e565b60405180910390a150505050565b6000600160ff16905090565b600060606106fe610a0e565b91506040518060200160405280600081525090509250929050565b6000600354905090565b600080828154811061073857610737611267565b5b9060005260206000200160009054906101000a900473ffffffffffffffffffffffffffffffffffffffff169050919050565b60007f0000000000000000000000000000000000000000000000000000000000000000905090565b60008080549050905090565b60008080549050826000815181106107b9576107b8611267565b5b60200260200101516107cb91906112c5565b9050600081815481106107e1576107e0611267565b5b9060005260206000200160009054906101000a900473ffffffffffffffffffffffffffffffffffffffff16600260006101000a81548173ffffffffffffffffffffffffffffffffffffffff021916908373ffffffffffffffffffffffffffffffffffffffff1602179055506000600260009054906101000a900473ffffffffffffffffffffffffffffffffffffffff1673ffffffffffffffffffffffffffffffffffffffff164760405161089490611327565b60006040518083038185875af1925050503d80600081146108d1576040519150601f19603f3d011682016040523d82523d6000602084013e6108d6565b606091505b5050905080610911576040517f07685e3b00000000000000000000000000000000000000000000000000000000815260040160405180910390fd5b6000600460006101000a81548160ff0219169083600181111561093757610936610bb9565b5b0217905550600067ffffffffffffffff81111561095757610956610ca1565b5b6040519080825280602002602001820160405280156109855781602001602082028036833780820191505090505b506000908051906020019061099b929190610ade565b5042600381905550600260009054906101000a900473ffffffffffffffffffffffffffffffffffffffff1673ffffffffffffffffffffffffffffffffffffffff167f5b690ec4a06fe979403046eaeea5b3ce38524683c3001f662c8b5a829632f7df60405160405180910390a250505050565b6000610a1a6000610a4f565b8015610a2a5750610a29610a8e565b5b8015610a3a5750610a39610a9d565b5b8015610a4a5750610a49610aa7565b5b905090565b6000600460009054906101000a900460ff166001811115610a7357610a72610bb9565b5b826001811115610a8657610a85610bb9565b5b149050919050565b60008060008054905011905090565b6000804711905090565b60007f000000000000000000000000000000000000000000000000000000000000000060035442610ad89190611093565b11905090565b828054828255906000526020600020908101928215610b57579160200282015b82811115610b565782518260006101000a81548173ffffffffffffffffffffffffffffffffffffffff021916908373ffffffffffffffffffffffffffffffffffffffff16021790555091602001919060010190610afe565b5b509050610b649190610b68565b5090565b5b80821115610b81576000816000905550600101610b69565b5090565b6000819050919050565b610b9881610b85565b82525050565b6000602082019050610bb36000830184610b8f565b92915050565b7f4e487b7100000000000000000000000000000000000000000000000000000000600052602160045260246000fd5b60028110610bf957610bf8610bb9565b5b50565b6000819050610c0a82610be8565b919050565b6000610c1a82610bfc565b9050919050565b610c2a81610c0f565b82525050565b6000602082019050610c456000830184610c21565b92915050565b6000604051905090565b600080fd5b600080fd5b610c6881610b85565b8114610c7357600080fd5b50565b600081359050610c8581610c5f565b92915050565b600080fd5b6000601f19601f8301169050919050565b7f4e487b7100000000000000000000000000000000000000000000000000000000600052604160045260246000fd5b610cd982610c90565b810181811067ffffffffffffffff82111715610cf857610cf7610ca1565b5b80604052505050565b6000610d0b610c4b565b9050610d178282610cd0565b919050565b600067ffffffffffffffff821115610d3757610d36610ca1565b5b602082029050602081019050919050565b600080fd5b6000610d60610d5b84610d1c565b610d01565b90508083825260208201905060208402830185811115610d8357610d82610d48565b5b835b81811015610dac5780610d988882610c76565b845260208401935050602081019050610d85565b5050509392505050565b600082601f830112610dcb57610dca610c8b565b5b8135610ddb848260208601610d4d565b91505092915050565b60008060408385031215610dfb57610dfa610c55565b5b6000610e0985828601610c76565b925050602083013567ffffffffffffffff811115610e2a57610e29610c5a565b5b610e3685828601610db6565b9150509250929050565b600080fd5b60008083601f840112610e5b57610e5a610c8b565b5b8235905067ffffffffffffffff811115610e7857610e77610e40565b5b602083019150836001820283011115610e9457610e93610d48565b5b9250929050565b60008060208385031215610eb257610eb1610c55565b5b600083013567ffffffffffffffff811115610ed057610ecf610c5a565b5b610edc85828601610e45565b92509250509250929050565b60008115159050919050565b610efd81610ee8565b82525050565b600081519050919050565b600082825260208201905092915050565b60005b83811015610f3d578082015181840152602081019050610f22565b60008484015250505050565b6000610f5482610f03565b610f5e8185610f0e565b9350610f6e818560208601610f1f565b610f7781610c90565b840191505092915050565b6000604082019050610f976000830185610ef4565b8181036020830152610fa98184610f49565b90509392505050565b600060208284031215610fc857610fc7610c55565b5b6000610fd684828501610c76565b91505092915050565b600073ffffffffffffffffffffffffffffffffffffffff82169050919050565b600061100a82610fdf565b9050919050565b61101a81610fff565b82525050565b60006020820190506110356000830184611011565b92915050565b60006040820190506110506000830185611011565b61105d6020830184611011565b9392505050565b7f4e487b7100000000000000000000000000000000000000000000000000000000600052601160045260246000fd5b600061109e82610b85565b91506110a983610b85565b92508282039050818111156110c1576110c0611064565b5b92915050565b60006040820190506110dc6000830185610b8f565b6110e96020830184610b8f565b9392505050565b6000819050919050565b611103816110f0565b82525050565b600067ffffffffffffffff82169050919050565b61112681611109565b82525050565b600060ff82169050919050565b600061ffff82169050919050565b6000819050919050565b600061116c6111676111628461112c565b611147565b611139565b9050919050565b61117c81611151565b82525050565b600063ffffffff82169050919050565b61119b81611182565b82525050565b60006111bc6111b76111b28461112c565b611147565b611182565b9050919050565b6111cc816111a1565b82525050565b600060a0820190506111e760008301886110fa565b6111f4602083018761111d565b6112016040830186611173565b61120e6060830185611192565b61121b60808301846111c3565b9695505050505050565b60008151905061123481610c5f565b92915050565b6000602082840312156112505761124f610c55565b5b600061125e84828501611225565b91505092915050565b7f4e487b7100000000000000000000000000000000000000000000000000000000600052603260045260246000fd5b7f4e487b7100000000000000000000000000000000000000000000000000000000600052601260045260246000fd5b60006112d082610b85565b91506112db83610b85565b9250826112eb576112ea611296565b5b828206905092915050565b600081905092915050565b50565b60006113116000836112f6565b915061131c82611301565b600082019050919050565b600061133282611304565b915081905091905056fea2646970667358221220d7bcadae2162683e06b5b098042ad66995f498daaf066d9c3f8d593562bf83e564736f6c63430008120033",
  "devdoc": {
    "author": "Artemides - Edmundo Arias",
    "details": "Raffle is implements the VRF v2 and Chainlink Keepers",
    "kind": "dev",
    "methods": {
      "checkUpkeep(bytes)": {
        "details": "function required to run on chainlink automation network",
        "returns": {
          "performData": "is the data to be run",
          "upkeepNeeded": "is needed to perform the upkeep"
        }
      }
    },
    "title": "Untamperable Raffle",
    "version": 1
  },
  "userdoc": {
    "kind": "user",
    "methods": {},
    "notice": "this descentalized raffle picks a random winner",
    "version": 1
  },
  "storageLayout": {
    "storage": [
      {
        "astId": 195,
        "contract": "contracts/Raffle.sol:Raffle",
        "label": "s_players",
        "offset": 0,
        "slot": "0",
        "type": "t_array(t_address_payable)dyn_storage"
      },
      {
        "astId": 198,
        "contract": "contracts/Raffle.sol:Raffle",
        "label": "i_vrfCoordinatorV2",
        "offset": 0,
        "slot": "1",
        "type": "t_contract(VRFCoordinatorV2Interface)165"
      },
      {
        "astId": 212,
        "contract": "contracts/Raffle.sol:Raffle",
        "label": "s_lastWinner",
        "offset": 0,
        "slot": "2",
        "type": "t_address"
      },
      {
        "astId": 216,
        "contract": "contracts/Raffle.sol:Raffle",
        "label": "s_lastRaffleInterval",
        "offset": 0,
        "slot": "3",
        "type": "t_uint256"
      },
      {
        "astId": 219,
        "contract": "contracts/Raffle.sol:Raffle",
        "label": "s_raffleSate",
        "offset": 0,
        "slot": "4",
        "type": "t_enum(RaffleState)190"
      }
    ],
    "types": {
      "t_address": {
        "encoding": "inplace",
        "label": "address",
        "numberOfBytes": "20"
      },
      "t_address_payable": {
        "encoding": "inplace",
        "label": "address payable",
        "numberOfBytes": "20"
      },
      "t_array(t_address_payable)dyn_storage": {
        "base": "t_address_payable",
        "encoding": "dynamic_array",
        "label": "address payable[]",
        "numberOfBytes": "32"
      },
      "t_contract(VRFCoordinatorV2Interface)165": {
        "encoding": "inplace",
        "label": "contract VRFCoordinatorV2Interface",
        "numberOfBytes": "20"
      },
      "t_enum(RaffleState)190": {
        "encoding": "inplace",
        "label": "enum Raffle.RaffleState",
        "numberOfBytes": "1"
      },
      "t_uint256": {
        "encoding": "inplace",
        "label": "uint256",
        "numberOfBytes": "32"
      }
    }
  }
}